:100000000C9435000C945D000C945D000C945D0024
:100010000C945D000C945D000C945D000C945D00EC
:100020000C945D000C945D000C945D000C945D00DC
:100030000C945D000C945D000C945D000C945D00CC
:100040000C94B9010C945D000C9429020C940302E9
:100050000C945D000C945D000C945D000C945D00AC
:100060000C945D000C945D00080411241FBECFEFBA
:10007000D8E0DEBFCDBF11E0A0E0B1E0ECE5FCE0F0
:1000800002C005900D92AA32B107D9F721E0AAE289
:10009000B1E001C01D92A03DB207E1F710E0C5E359
:1000A000D0E004C02197FE010E945704C433D10759
:1000B000C9F70E945B020C942C060C940000FC0112
:1000C000538D448D252F30E0842F90E0821B930BBD
:1000D000541710F0CF96089501970895FC01918D63
:1000E000828D981761F0828DDF01A80FB11D5D969A
:1000F0008C91928D9F5F9F73928F90E008958FEF08
:100100009FEF0895FC01918D828D981731F0828DBB
:10011000E80FF11D858D90E008958FEF9FEF089512
:10012000FC01918D228D892F90E0805C9F4F821B76
:1001300091098F7399270895FC01848DDF01A80F21
:10014000B11DA35ABF4F2C91848D90E001968F73FF
:100150009927848FA689B7892C93A089B1898C911E
:10016000837080648C93938D848D981306C002886D
:10017000F389E02D80818F7D80830895EF92FF9237
:100180000F931F93CF93DF93EC0181E0888F9B8DBA
:100190008C8D981305C0E889F989808185FD26C07A
:1001A000F62E0B8D10E00F5F1F4F0F731127E02EFF
:1001B0008C8DE8120CC00FB607FCFACFE889F989DC
:1001C000808185FFF5CFCE010E949C00F1CF8B8D01
:1001D000FE01E80FF11DE35AFF4FF0829FB7F8943C
:1001E0000B8FEA89FB89808180620AC09FB7F894EF
:1001F000EE89FF896083E889F98980818370806452
:1002000080839FBF81E090E0DF91CF911F910F919C
:10021000FF90EF900895CF93DF93EC01888D8823B2
:10022000C9F0EA89FB89808185FD05C0A889B98963
:100230008C9186FD0FC00FB607FCF5CF808185FF3E
:10024000F2CFA889B9898C9185FFEDCFCE010E94AC
:100250009C00E7CFDF91CF91089583E391E00E9466
:10026000900021E0892B09F420E0822F089580E09E
:1002700090E0892B29F00E942D0181110C9400003F
:1002800008953FB7F89480912F0190913001A0918B
:100290003101B091320126B5A89B05C02F3F19F05E
:1002A0000196A11DB11D3FBFBA2FA92F982F8827F6
:1002B000820F911DA11DB11DBC01CD0142E0660F51
:1002C000771F881F991F4A95D1F70895CF92DF9223
:1002D000EF92FF920F931F93CF93DF936C017A01FC
:1002E0008B01C0E0D0E0CE15DF0581F0D8016D9123
:1002F0008D01D601ED91FC910190F081E02DC601B8
:100300000995892B11F02196EECF7E01C701DF916F
:10031000CF911F910F91FF90EF90DF90CF900895B4
:10032000089580E090E0089594EA9093BC00909145
:10033000BC0097FFFCCF8093BB0084EC8093BC0093
:100340008091BC0087FFFCCF0895009769F0FC0105
:1003500001900020E9F73197AF01481B590BBC0110
:1003600083E391E00C94660180E090E008950E94A0
:1003700027061F920F920FB60F9211242F933F93CF
:100380008F939F93AF93BF9380912B0190912C01FA
:10039000A0912D01B0912E0130912A0123E0230F6D
:1003A0002D3720F40196A11DB11D05C026E8230FAD
:1003B0000296A11DB11D20932A0180932B019093D9
:1003C0002C01A0932D01B0932E0180912F019091CB
:1003D0003001A0913101B09132010196A11DB11DF2
:1003E00080932F0190933001A0933101B09332019B
:1003F000BF91AF919F918F913F912F910F900FBE21
:100400000F901F9018951F920F920FB60F92112404
:100410002F933F934F935F936F937F938F939F930C
:10042000AF93BF93EF93FF9383E391E00E949C000F
:10043000FF91EF91BF91AF919F918F917F916F91BC
:100440005F914F913F912F910F900FBE0F901F9092
:1004500018951F920F920FB60F9211242F938F931E
:100460009F93EF93FF93E0914301F09144018081CA
:10047000E0914901F0914A0182FD12C09081809182
:100480004C018F5F8F7320914D01821751F0E091E5
:100490004C01F0E0ED5CFE4F958F80934C0101C064
:1004A0008081FF91EF919F918F912F910F900FBEBF
:1004B0000F901F901895CF93DF93CDB7DEB7A1971C
:1004C0000FB6F894DEBF0FBECDBF789484B58260BE
:1004D00084BD84B5816084BD85B5826085BD85B5E8
:1004E000816085BD80916E00816080936E00109266
:1004F00081008091810082608093810080918100E1
:100500008160809381008091800081608093800071
:100510008091B10084608093B1008091B0008160CF
:100520008093B00080917A00846080937A008091FB
:100530007A00826080937A0080917A008160809353
:100540007A0080917A00806880937A001092C100CE
:100550001092C00088E18093C1008091C200866043
:100560008093C2001092C50087E68093C400109269
:10057000B90088E48093B80084E08093BC0080E3F5
:100580000E94940181E08093BB0084E88093BC00CA
:100590008091BC0087FFFCCF80E68093BB0084E89D
:1005A0008093BC008091BC0087FFFCCF84E98093DE
:1005B000BC0082E191E00E94A5018BE191E00E94E4
:1005C000A50114E880E30E94940125E02093BB007C
:1005D0001093BC008091BC0087FFFCCF84E980931E
:1005E000BC0081E30E949401E4ECE093BC008091A4
:1005F000BC0087FFFCCF8091BB001093BC008091B2
:10060000BC0087FFFCCF6091BB0070E080E090E011
:100610000E94000526EB33EF4DE75DE30E94B50530
:100620002CE53FE846E551E40E945E046B017C0145
:100630004B015C019B01AC010E942206882319F04A
:100640008EE191E01AC026013701E89477F82FEF88
:100650003FEF4FE75FE7C301B2010E94220681111D
:100660000FC02FEF3FEF4FE75FE7C301B2010E94DA
:10067000CA0418162CF482E291E00E94A5019AC0E7
:100680002FEF3FEF4FE75FE4C701B6010E94B005CF
:1006900018161CF486E291E0F0CF2FEF3FEF4FE702
:1006A0005FECC701B6010E94CA0487FDF3CF20E0CA
:1006B00030E0A901C701B6010E94CA0487FF0BC040
:1006C0006DE283E391E00E94BE0046015701B7FA54
:1006D000B094B7F8B0942AE037ED43EA5BE3C50184
:1006E000B4010E945E046B017C010E94CF044B01A7
:1006F0005C010E94FE049B01AC01C701B6010E948F
:100700005D042B013C0119A27E01F1E2EF0EF11C08
:100710001701C501B4012AE030E040E050E00E943A
:10072000350449015A01605DF70162937F01232B73
:10073000242B252B71F7CF010E94A5016EE283E3E4
:1007400091E00E94BE0003E00150A1F120E030E002
:1007500040E251E4C301B2010E94B5054B015C01C6
:100760000E94CF049B0140E050E019A271013B01BF
:100770006A01CA01B9012AE030E040E050E00E947D
:100780003504605DF70162937F0121153105410554
:10079000510579F7CF010E94A501B301C6010E945E
:1007A000FE049B01AC01C501B4010E945D042B0154
:1007B0003C01CACF8BE191E00E94A5010E9441015A
:1007C0006B017C0184EC882E89E0982EA12CB12C41
:1007D0000E944101DC01CB018C199D09AE09BF09C2
:1007E000883E9340A105B10598F3F1E08F1A910876
:1007F000A108B10828EEC20E23E0D21EE11CF11CB4
:1008000081149104A104B10419F70E943701DACED2
:10081000E3E3F1E01382128288EE93E0A0E0B0E01F
:1008200084839583A683B78384E091E0918380835A
:1008300085EC90E09587848784EC90E097878687A5
:1008400080EC90E0918B808B81EC90E0938B828B9D
:1008500082EC90E0958B848B86EC90E0978B868B76
:10086000118E128E138E148E0895A1E21A2EAA1BD9
:10087000BB1BFD010DC0AA1FBB1FEE1FFF1FA21750
:10088000B307E407F50720F0A21BB30BE40BF50B4D
:10089000661F771F881F991F1A9469F760957095D6
:1008A000809590959B01AC01BD01CF010895EE0F9D
:1008B000FF1F0590F491E02D09945058BB27AA27FB
:1008C0000E9475040C9476050E94680538F00E9419
:1008D0006F0520F039F49F3F19F426F40C94650558
:1008E0000EF4E095E7FB0C945F05E92F0E94870565
:1008F00058F3BA17620773078407950720F079F455
:10090000A6F50C94A9050EF4E0950B2EBA2FA02D98
:100910000B01B90190010C01CA01A0011124FF27AC
:10092000591B99F0593F50F4503E68F11A16F040A7
:10093000A22F232F342F4427585FF3CF46953795A6
:100940002795A795F0405395C9F77EF41F16BA0B6B
:10095000620B730B840BBAF09150A1F0FF0FBB1F19
:10096000661F771F881FC2F70EC0BA0F621F731F62
:10097000841F48F4879577956795B795F7959E3FBF
:1009800008F0B0CF9395880F08F09927EE0F979550
:10099000879508950E943B0508F481E008950E9420
:1009A0008F0588F09F5798F0B92F9927B751B0F06D
:1009B000E1F0660F771F881F991F1AF0BA95C9F7E3
:1009C00014C0B13091F00E94A905B1E008950C94D3
:1009D000A905672F782F8827B85F39F0B93FCCF386
:1009E000869577956795B395D9F73EF49095809560
:1009F000709561957F4F8F4F9F4F0895E89409C080
:100A000097FB3EF490958095709561957F4F8F4F41
:100A10009F4F9923A9F0F92F96E9BB279395F69557
:100A2000879577956795B795F111F8CFFAF4BB0FD5
:100A300011F460FF1BC06F5F7F4F8F4F9F4F16C039
:100A4000882311F096E911C0772321F09EE8872FC3
:100A5000762F05C0662371F096E8862F70E060E07F
:100A60002AF09A95660F771F881FDAF7880F9695F8
:100A7000879597F90895990F0008550FAA0BE0E89C
:100A8000FEEF16161706E807F907C0F01216130650
:100A9000E407F50798F0621B730B840B950B39F490
:100AA0000A2661F0232B242B252B21F408950A26F6
:100AB00009F4A140A6958FEF811D811D089597F936
:100AC0009F6780E870E060E008959FEF80EC0895F4
:100AD00000240A941616170618060906089500241D
:100AE0000A9412161306140605060895092E039497
:100AF000000C11F4882352F0BB0F40F4BF2B11F40B
:100B000060FF04C06F5F7F4F8F4F9F4F089557FD69
:100B10009058440F551F59F05F3F71F04795880F6B
:100B200097FB991F61F09F3F79F087950895121602
:100B300013061406551FF2CF4695F1DF08C01616AE
:100B400017061806991FF1CF86957105610508945F
:100B50000895E894BB2766277727CB0197F9089576
:100B60000E943B0508F48FEF08950E94C8050C947D
:100B700076050E94680538F00E946F0520F09523E5
:100B800011F00C945F050C94650511240C94AA05D2
:100B90000E94870570F3959FC1F3950F50E0551F94
:100BA000629FF001729FBB27F00DB11D639FAA27C2
:100BB000F00DB11DAA1F649F6627B00DA11D661F11
:100BC000829F2227B00DA11D621F739FB00DA11D32
:100BD000621F839FA00D611D221F749F3327A00DEC
:100BE000611D231F849F600D211D822F762F6A2F88
:100BF00011249F5750409AF0F1F088234AF0EE0FED
:100C0000FF1FBB1F661F771F881F91505040A9F719
:100C10009E3F510580F00C945F050C94AA055F3F40
:100C2000E4F3983ED4F3869577956795B795F79555
:100C3000E7959F5FC1F7FE2B880F911D96958795CD
:100C400097F908950E943B05880B990B089581E060
:0C0C500090E0F8940C942C06F894FFCF70
:100C5C0000000000BE0066015F000B0190006E00FA
:100C6C00820054656D7020284329000D0A006E61C6
:0A0C7C006E00696E66006F76660078
:00000001FF
